{
  "contractName": "VendingMachine",
  "abi": [
    {
      "inputs": [],
      "stateMutability": "nonpayable",
      "type": "constructor"
    },
    {
      "inputs": [
        {
          "internalType": "address",
          "name": "",
          "type": "address"
        }
      ],
      "name": "donutBalances",
      "outputs": [
        {
          "internalType": "uint256",
          "name": "",
          "type": "uint256"
        }
      ],
      "stateMutability": "view",
      "type": "function",
      "constant": true
    },
    {
      "inputs": [],
      "name": "owner",
      "outputs": [
        {
          "internalType": "address",
          "name": "",
          "type": "address"
        }
      ],
      "stateMutability": "view",
      "type": "function",
      "constant": true
    },
    {
      "inputs": [],
      "name": "getDonutPrice",
      "outputs": [
        {
          "internalType": "uint256",
          "name": "",
          "type": "uint256"
        }
      ],
      "stateMutability": "view",
      "type": "function",
      "constant": true
    },
    {
      "inputs": [],
      "name": "getVendingMachineBalance",
      "outputs": [
        {
          "internalType": "uint256",
          "name": "",
          "type": "uint256"
        }
      ],
      "stateMutability": "view",
      "type": "function",
      "constant": true
    },
    {
      "inputs": [
        {
          "internalType": "uint256",
          "name": "amount",
          "type": "uint256"
        }
      ],
      "name": "restock",
      "outputs": [],
      "stateMutability": "nonpayable",
      "type": "function"
    },
    {
      "inputs": [
        {
          "internalType": "uint256",
          "name": "newPrice",
          "type": "uint256"
        }
      ],
      "name": "setDonutPrice",
      "outputs": [],
      "stateMutability": "nonpayable",
      "type": "function"
    },
    {
      "inputs": [
        {
          "internalType": "uint256",
          "name": "amount",
          "type": "uint256"
        }
      ],
      "name": "purchase",
      "outputs": [],
      "stateMutability": "payable",
      "type": "function",
      "payable": true
    }
  ],
  "bytecode": "0x6080604052671bc16d674ec8000060025534801561001c57600080fd5b50336000806101000a81548173ffffffffffffffffffffffffffffffffffffffff021916908373ffffffffffffffffffffffffffffffffffffffff1602179055506064600160003073ffffffffffffffffffffffffffffffffffffffff1673ffffffffffffffffffffffffffffffffffffffff168152602001908152602001600020819055506109ca806100b16000396000f3fe6080604052600436106100705760003560e01c80639a020d8a1161004e5780639a020d8a146100f4578063c21a702a14610131578063e7644d341461015a578063efef39a11461018557610070565b80635cfe64d914610075578063620418da146100a05780638da5cb5b146100c9575b600080fd5b34801561008157600080fd5b5061008a6101a1565b604051610097919061055a565b60405180910390f35b3480156100ac57600080fd5b506100c760048036038101906100c291906105a6565b6101ab565b005b3480156100d557600080fd5b506100de610256565b6040516100eb9190610614565b60405180910390f35b34801561010057600080fd5b5061011b6004803603810190610116919061065b565b61027a565b604051610128919061055a565b60405180910390f35b34801561013d57600080fd5b50610158600480360381019061015391906105a6565b610292565b005b34801561016657600080fd5b5061016f610379565b60405161017c919061055a565b60405180910390f35b61019f600480360381019061019a91906105a6565b6103c0565b005b6000600254905090565b60008054906101000a900473ffffffffffffffffffffffffffffffffffffffff1673ffffffffffffffffffffffffffffffffffffffff163373ffffffffffffffffffffffffffffffffffffffff1603610239576040517f08c379a00000000000000000000000000000000000000000000000000000000081526004016102309061070b565b60405180910390fd5b670de0b6b3a76400008161024d919061075a565b60028190555050565b60008054906101000a900473ffffffffffffffffffffffffffffffffffffffff1681565b60016020528060005260406000206000915090505481565b60008054906101000a900473ffffffffffffffffffffffffffffffffffffffff1673ffffffffffffffffffffffffffffffffffffffff163373ffffffffffffffffffffffffffffffffffffffff1603610320576040517f08c379a0000000000000000000000000000000000000000000000000000000008152600401610317906107e8565b60405180910390fd5b80600160003073ffffffffffffffffffffffffffffffffffffffff1673ffffffffffffffffffffffffffffffffffffffff168152602001908152602001600020600082825461036f9190610808565b9250508190555050565b6000600160003073ffffffffffffffffffffffffffffffffffffffff1673ffffffffffffffffffffffffffffffffffffffff16815260200190815260200160002054905090565b600254816103ce919061075a565b341015610410576040517f08c379a0000000000000000000000000000000000000000000000000000000008152600401610407906108ae565b60405180910390fd5b80600160003073ffffffffffffffffffffffffffffffffffffffff1673ffffffffffffffffffffffffffffffffffffffff168152602001908152602001600020541015610492576040517f08c379a000000000000000000000000000000000000000000000000000000000815260040161048990610940565b60405180910390fd5b80600160003073ffffffffffffffffffffffffffffffffffffffff1673ffffffffffffffffffffffffffffffffffffffff16815260200190815260200160002060008282546104e19190610960565b9250508190555080600160003373ffffffffffffffffffffffffffffffffffffffff1673ffffffffffffffffffffffffffffffffffffffff16815260200190815260200160002060008282546105379190610808565b9250508190555050565b6000819050919050565b61055481610541565b82525050565b600060208201905061056f600083018461054b565b92915050565b600080fd5b61058381610541565b811461058e57600080fd5b50565b6000813590506105a08161057a565b92915050565b6000602082840312156105bc576105bb610575565b5b60006105ca84828501610591565b91505092915050565b600073ffffffffffffffffffffffffffffffffffffffff82169050919050565b60006105fe826105d3565b9050919050565b61060e816105f3565b82525050565b60006020820190506106296000830184610605565b92915050565b610638816105f3565b811461064357600080fd5b50565b6000813590506106558161062f565b92915050565b60006020828403121561067157610670610575565b5b600061067f84828501610646565b91505092915050565b600082825260208201905092915050565b7f4f6e6c7920746865206f776e65722063616e207365742074686520707269636560008201527f2e00000000000000000000000000000000000000000000000000000000000000602082015250565b60006106f5602183610688565b915061070082610699565b604082019050919050565b60006020820190508181036000830152610724816106e8565b9050919050565b7f4e487b7100000000000000000000000000000000000000000000000000000000600052601160045260246000fd5b600061076582610541565b915061077083610541565b925082820261077e81610541565b915082820484148315176107955761079461072b565b5b5092915050565b7f4f6e6c7920746865206f776e65722063616e20726573746f636b2e0000000000600082015250565b60006107d2601b83610688565b91506107dd8261079c565b602082019050919050565b60006020820190508181036000830152610801816107c5565b9050919050565b600061081382610541565b915061081e83610541565b92508282019050808211156108365761083561072b565b5b92915050565b7f596f75206d75737420706179206174206c65617374203220455448207065722060008201527f646f6e7574000000000000000000000000000000000000000000000000000000602082015250565b6000610898602583610688565b91506108a38261083c565b604082019050919050565b600060208201905081810360008301526108c78161088b565b9050919050565b7f4e6f7420656e6f75676820646f6e75747320696e2073746f636b20746f20636f60008201527f6d706c6574652074686973207075726368617365000000000000000000000000602082015250565b600061092a603483610688565b9150610935826108ce565b604082019050919050565b600060208201905081810360008301526109598161091d565b9050919050565b600061096b82610541565b915061097683610541565b925082820390508181111561098e5761098d61072b565b5b9291505056fea26469706673582212203414ae6d2d82fc99477556324bfd069f144d945d0e201d1c66232b6b88aba9eb64736f6c63430008110033",
  "immutableReferences": {},
  "source": "// SPDX-License-Identifier: MIT\r\npragma solidity ^0.8.17;\r\n\r\ncontract VendingMachine {\r\n    // state variables\r\n    address public owner;\r\n    mapping(address => uint) public donutBalances;\r\n\r\n    uint256 donutPrice = 2 ether;\r\n\r\n    // set the owner as the address that deployed the contract\r\n    // set the initial vending machine balance to 100\r\n\r\n    constructor() {\r\n        owner = msg.sender;\r\n        // address(this) give the address of this contract\r\n        donutBalances[address(this)] = 100;\r\n    }\r\n\r\n    function getDonutPrice() public view returns (uint) {\r\n        return donutPrice;\r\n    }\r\n\r\n    function getVendingMachineBalance() public view returns (uint) {\r\n        return donutBalances[address(this)];\r\n    }\r\n\r\n    // Let the owner restock the vending machine\r\n    function restock(uint amount) public {\r\n        require(msg.sender != owner, \"Only the owner can restock.\");\r\n        donutBalances[address(this)] += amount;\r\n    }\r\n\r\n    function setDonutPrice(uint newPrice) public {\r\n        require(msg.sender != owner, \"Only the owner can set the price.\");\r\n        donutPrice = newPrice * 1 ether;\r\n    }\r\n\r\n    // Purchase donuts from the vending machine\r\n    function purchase(uint amount) public payable {\r\n        require(\r\n            msg.value >= amount * donutPrice,\r\n            \"You must pay at least 2 ETH per donut\"\r\n        );\r\n        require(\r\n            donutBalances[address(this)] >= amount,\r\n            \"Not enough donuts in stock to complete this purchase\"\r\n        );\r\n        donutBalances[address(this)] -= amount;\r\n        donutBalances[msg.sender] += amount;\r\n    }\r\n}\r\n",
  "sourcePath": "/Users/umarwaseem/Desktop/i200762-class-task/contracts/VendingMachine.sol",
  "compiler": {
    "name": "solc",
    "version": "0.8.17+commit.8df45f5f.Emscripten.clang"
  },
  "schemaVersion": "3.4.16",
  "updatedAt": "2023-11-22T19:29:56.932Z",
  "networkType": "ethereum",
  "devdoc": {
    "kind": "dev",
    "methods": {},
    "version": 1
  },
  "userdoc": {
    "kind": "user",
    "methods": {},
    "version": 1
  }
}